:04000000D5EF10F038
:1008000000006CDC02004450800B4D6E44504424C8
:100810004F6E43AE0EEF04F010EF04F011EF04F052
:100820004F804F50D8B417EF04F019EF04F02EEFBB
:1008300004F04F28D8A41FEF04F021EF04F029EFB3
:1008400004F0000E416E000E426E000E436E000E6C
:10085000446E438E000E446E36EF04F0000E416E7F
:10086000000E426E000E436E000E446E4850800B28
:100870004E6E4D504E18D8B440EF04F042EF04F0E5
:1008800043EF04F04D8C485048244E6E47AE4BEF7A
:1008900004F04DEF04F04EEF04F04E804E50D8B40B
:1008A00054EF04F056EF04F06BEF04F04E28D8A498
:1008B0005CEF04F05EEF04F066EF04F0000E456EAE
:1008C000000E466E000E476E000E486E478E000EFC
:1008D000486E73EF04F0000E456E000E466E000E7B
:1008E000476E000E486E4F504E5CD8B07AEF04F061
:1008F0007CEF04F0A3EF04F04DAC81EF04F083EF44
:1009000004F085EF04F0800E4D1A4FC050F04EC039
:100910004FF050C04EF041C050F045C041F050C0C3
:1009200045F042C050F046C042F050C046F043C0CF
:1009300050F047C043F050C047F044C050F048C0AA
:1009400044F050C048F0000E506E4F504EC049F079
:100950004A6A495E000E4A5A4ABEB8EF04F04A504D
:1009600009E11A0E495CD8A0B8EF04F0BAEF04F020
:10097000F1EF04F04150421043104410D8A4C3EFEB
:1009800004F0C6EF04F0010EC7EF04F0000E506E45
:10099000000E416E000E426E000E436E000E446E5D
:1009A0004EC04FF0FAEF04F050A0D9EF04F0DBEFA7
:1009B00004F0E1EF04F0D89050300109506EE3EFFD
:1009C00004F0D890503241A0E8EF04F0EAEF04F0D0
:1009D000EBEF04F0508E4434443243324232413221
:1009E0004F2A4E504F5CD8A0F8EF04F0FAEF04F015
:1009F000D4EF04F04DBCFFEF04F001EF05F041EF40
:100A000005F04F50D8A407EF05F009EF05F013EFFC
:100A100005F0000E416E000E426E000E436E000E99
:100A2000446E62EF06F04550412646504222475040
:100A300043224850442244A020EF05F022EF05F065
:100A4000CEEF05F050A027EF05F029EF05F02FEFCE
:100A500005F0D89050300109506E31EF05F0D89074
:100A6000503241A036EF05F038EF05F039EF05F0D0
:100A7000508E443444324332423241324F2ACEEF18
:100A800005F04550415C4650425847504358445049
:100A9000800A496E4850800A4958D8B052EF05F094
:100AA00054EF05F07FEF05F04150455C496E425030
:100AB00046584A6E435047584B6E445048584C6E07
:100AC000FF0E4924416EFF0E4A20426EFF0E4B205E
:100AD000436EFF0E4C20446E800E4D1A506C5050E9
:100AE000D8A475EF05F077EF05F087EF05F0010E5C
:100AF0004126000E42224322442287EF05F0455052
:100B0000415E4650425A4750435A4850445A415019
:100B1000421043104410D8A490EF05F092EF05F076
:100B2000C7EF05F05050D8A498EF05F09AEF05F004
:100B3000C7EF05F0000E416E000E426E000E436ED0
:100B4000000E446E62EF06F0D890413642364336CE
:100B5000443650AEAEEF05F0B0EF05F0B1EF05F062
:100B6000418050A0B6EF05F0B8EF05F0BCEF05F0FE
:100B7000D8805036BEEF05F0D89050364F50D8B4DC
:100B8000C4EF05F0C6EF05F0C7EF05F04F0643AE22
:100B9000CCEF05F0CEEF05F0A4EF05F0000E4E6EA1
:100BA00050AED5EF05F0D7EF05F0EFEF05F050C0F0
:100BB00049F07F0E4916D8B4E0EF05F0E2EF05F0FA
:100BC000E6EF05F0010E4E6EEFEF05F041A0EBEF02
:100BD00005F0EDEF05F0EFEF05F0E2EF05F04E5018
:100BE000D8B4F5EF05F0F7EF05F022EF06F0010EAF
:100BF0004126000E42224322442244A002EF06F086
:100C000004EF06F022EF06F041C049F042C04AF07E
:100C100043C04BF044C04CF04C344C324B324A325F
:100C2000493249C041F04AC042F04BC043F04CC089
:100C300044F04F28D8B41FEF06F021EF06F022EF62
:100C400006F04F2A4F28D8B428EF06F02AEF06F016
:100C500032EF06F04F50D8A430EF06F032EF06F036
:100C600044EF06F0000E416E000E426E000E436E21
:100C7000000E446E4F50D8A440EF06F042EF06F04D
:100C800044EF06F0000E4D6E4FA049EF06F04BEF1B
:100C900006F04EEF06F0438E4FEF06F0439ED890DD
:100CA0004F30446E4DAE57EF06F059EF06F05AEF55
:100CB00006F0448E41C041F042C042F043C043F0D0
:100CC00044C044F012002B50800B346E2B502B2468
:100CD0003A6E2AAE6EEF06F070EF06F071EF06F096
:100CE0003A803A50D8B477EF06F079EF06F08CEFFF
:100CF00006F03A28D8A47FEF06F081EF06F089EFDE
:100D000006F0000E286E000E296E000E2A6E000EF0
:100D10002B6E2A8E94EF06F0000E286E000E296EC0
:100D2000000E2A6E000E2B6E2F50800B341A2F509F
:100D30002F24396E2EAE9FEF06F0A1EF06F0A2EF42
:100D400006F039803950D8B4A8EF06F0AAEF06F0C3
:100D5000BDEF06F03928D8A4B0EF06F0B2EF06F0E8
:100D6000BAEF06F0000E2C6E000E2D6E000E2E6EE9
:100D7000000E2F6E2E8EC5EF06F0000E2C6E000EAC
:100D80002D6E000E2E6E000E2F6E3950D8B4CBEFA4
:100D900006F0CDEF06F0D5EF06F03A50D8A4D3EF29
:100DA00006F0D5EF06F0DFEF06F0000E286E000E1D
:100DB000296E000E2A6E000E2B6E77EF08F02E5073
:100DC0002802F3CF3FF0F4CF40F03F50356E366A43
:100DD000376A386A40503B6E3C6A3D6A3E6A2D5025
:100DE0002902F3CF3FF0F4CF40F03F503526000EFC
:100DF00036223722382240503B26000E3C223D222C
:100E00003E222C502A02F3CF3FF0F4CF40F03F5067
:100E10003526000E36223722382240503B26000E5F
:100E20003C223D223E2237C038F036C037F035C074
:100E300036F0356A2C502902F3CF3FF0F4CF40F062
:100E40003F50352640503622000E3722000E382201
:100E50002D502802F3CF3FF0F4CF40F03F5035261D
:100E600040503622000E3722000E382237C038F0AC
:100E700036C037F035C036F0356A2C502802F3CF33
:100E80003FF0F4CF40F03F50352640503622000E60
:100E90003722000E38222E502902F3CF3FF0F4CF34
:100EA00040F03F503B2640503C22000E3D22000EB9
:100EB0003E222D502A02F3CF3FF0F4CF40F03F50B6
:100EC0003B2640503C22000E3D22000E3E222E507A
:100ED0002A02F3CF3FF0F4CF40F03F50306E405045
:100EE000316E326A336A32C033F031C032F030C012
:100EF00031F0306A30503B2631503C2232503D2296
:100F000033503E2235C030F036C031F037C032F0B9
:100F100038C033F0190E92EF07F0D89033323232E6
:100F200031323032E82E8DEF07F030503B26315011
:100F30003C2232503D2233503E2237C038F036C07A
:100F400037F035C036F0356A39503AC030F0316A82
:100F50003026000E3122820E30243F6EFF0E3120EB
:100F6000406EC8EF07F0D8903B363C363D363E36F3
:100F700038AEBDEF07F0BFEF07F0C0EF07F03B80E2
:100F8000D89035363636373638363F06D8A0400644
:100F90003DAECDEF07F0CFEF07F0B3EF07F0000E57
:100FA000396E38AED6EF07F0D8EF07F0FCEF07F058
:100FB000FF0E3514306EFF0E3614316EFF0E3714EF
:100FC000326E7F0E3814336E3050311032103310C1
:100FD000D8B4EDEF07F0EFEF07F0F3EF07F0010EF5
:100FE000396EFCEF07F03BA0F8EF07F0FAEF07F0DF
:100FF000FCEF07F0EFEF07F03950D8B402EF08F03C
:1010000004EF08F028EF08F0010E3B26000E3C220A
:101010003D223E223EA00FEF08F011EF08F028EF2E
:1010200008F03BC030F03CC031F03DC032F03EC073
:1010300033F03334333232323132303230C03BF07D
:1010400031C03CF032C03DF033C03EF03F4A402A50
:1010500040BE33EF08F0405008E13F28D8A033EFFE
:1010600008F035EF08F03FEF08F0000E3B6E000E81
:101070003C6E800E3D6E7F0E3E6E6DEF08F040BE02
:101080004CEF08F0405006E13F04D8B04AEF08F0BA
:101090004CEF08F058EF08F0000E3B6E000E3C6E6F
:1010A000000E3D6E000E3E6E000E346E6DEF08F0C9
:1010B0003FC03AF0FF0E3B16FF0E3C167F0E3D166A
:1010C000000E3E163AA067EF08F069EF08F06AEFED
:1010D00008F03D8ED8903A303E6E34503E123BC000
:1010E00028F03CC029F03DC02AF03EC02BF0120091
:1010F0001250800B1F6E12501224266E11AE83EF19
:1011000008F085EF08F086EF08F026802650D8B466
:101110008CEF08F08EEF08F0A3EF08F02628D8A493
:1011200094EF08F096EF08F09EEF08F0000E0F6EB7
:10113000000E106E000E116E000E126E118E000E5B
:10114000126EABEF08F0000E0F6E000E106E000E68
:10115000116E000E126E1650800B1F1A16501624B8
:10116000276E15AEB6EF08F0B8EF08F0B9EF08F04B
:1011700027802750D8B4BFEF08F0C1EF08F0D6EFB2
:1011800008F02728D8A4C7EF08F0C9EF08F0D1EF7E
:1011900008F0000E136E000E146E000E156E000E99
:1011A000166E158E000E166EDEEF08F0000E136E32
:1011B000000E146E000E156E000E166E13501410F5
:1011C00015101610D8A4E7EF08F0E9EF08F001EFCA
:1011D00009F0000E0F6E000E106E000E116E000E64
:1011E000126E800E11127F0E12121F5012120FC0BB
:1011F0000FF010C010F011C011F012C012F044EF47
:101200000AF02650D8A407EF09F009EF09F013EF10
:1012100009F0000E0F6E000E106E000E116E000E23
:10122000126E44EF0AF0275026C017F0186A175EB6
:10123000000E185A7F0E1724206E000E1820216E03
:101240000FC01BF010C01CF011C01DF012C01EF02A
:10125000000E0F6E000E106E000E116E000E126E5C
:10126000000E226E000E236E000E246E000E256E00
:10127000000E276E74EF09F02750D8B442EF09F042
:1012800044EF09F05BEF09F0D8901B361C361D3691
:101290001E36D8900F3610361136123625AE53EF63
:1012A00009F055EF09F056EF09F00F80D89022367B
:1012B00023362436253613501B5C14501C58155009
:1012C0001D5816501E58D8A068EF09F06AEF09F0B3
:1012D00073EF09F0258C13501B5E14501C5A1550E7
:1012E0001D5A16501E5A272A190E27647AEF09F044
:1012F0007CEF09F03CEF09F01B501C101D101E1074
:10130000D8B485EF09F087EF09F09FEF09F022804C
:101310009FEF09F0D8900F3610361136123625AEF1
:1013200094EF09F096EF09F097EF09F00F80D8904D
:1013300022362336243625362006D8A0210611AEC3
:10134000A4EF09F0A6EF09F08AEF09F0000E276E6E
:1013500025AEADEF09F0AFEF09F0D3EF09F0FF0EC6
:101360002214176EFF0E2314186EFF0E2414196E2C
:101370007F0E25141A6E1750181019101A10D8B4B1
:10138000C4EF09F0C6EF09F0CAEF09F0010E276EAD
:10139000D3EF09F00FA0CFEF09F0D1EF09F0D3EFB1
:1013A00009F0C6EF09F02750D8B4D9EF09F0DBEF08
:1013B00009F0FFEF09F0010E0F26000E1022112296
:1013C000122212A0E6EF09F0E8EF09F0FFEF09F0B2
:1013D0000FC017F010C018F011C019F012C01AF0A9
:1013E0001A341A3219321832173217C00FF018C0D7
:1013F00010F019C011F01AC012F0204A212A21BEA3
:101400000AEF0AF0215008E12028D8A00AEF0AF0DC
:101410000CEF0AF017EF0AF0000E216E2068000EA4
:101420000F6E000E106E000E116E000E126E21BEB9
:1014300024EF0AF0215006E12004D8B022EF0AF090
:1014400024EF0AF032EF0AF0000E216E000E206E3B
:10145000000E0F6E000E106E000E116E000E126E5A
:10146000000E1F6E20C026F026A039EF0AF03BEFD9
:101470000AF03EEF0AF0118E3FEF0AF0119ED8906D
:101480002630126EF5EF08F01200000E416E000ECD
:10149000476E20EE35F0090EDE6AE806FDE2640EC6
:1014A000406EDBEF0AF0060E05EC11F0410E2C6EDB
:1014B000000E2D6E470E2E6E000E2F6E350E306E06
:1014C000000E316E0A0E326EC0EC0FF0466E020E48
:1014D0004618D8A46EEF0AF070EF0AF0C4EF0AF0D5
:1014E0004006000E436E000E426E000E016E000EAE
:1014F000026E000E036E000E046E000E4DEC0BF03B
:1015000001C00FF002C010F003C011F004C012F0CF
:10151000000E136E000E146E7A0E156E440E166ECB
:10152000E7EC0DF0D8A097EF0AF099EF0AF09BEFE7
:101530000AF0DBEF0AF000D000D000F0424A432A64
:1015400042C001F043C002F0036A046A000E4DEC91
:101550000BF001C00FF002C010F003C011F004C086
:1015600012F0000E136E000E146E7A0E156E440EFD
:10157000166EE7EC0DF0D8A0C0EF0AF0C2EF0AF04B
:101580009BEF0AF0DBEF0AF0040E4718D8A4CBEF6C
:101590000AF0CDEF0AF0CFEF0AF0E3EF0AF0040E05
:1015A0004718D8B4D6EF0AF0D8EF0AF0DBEF0AF00C
:1015B000000E4CEF0BF04050D8A4E1EF0AF0E3EF3F
:1015C0000AF053EF0AF0020E4618D8A4EAEF0AF028
:1015D000ECEF0AF0EEEF0AF0D8EF0AF035C0CBFFDF
:1015E0003750EFEC10F036C0BEFF020E3F6E000E1B
:1015F000456E000E446E000E016E000E026E000E6F
:10160000036E000E046E000E4DEC0BF001C00FF0E7
:1016100002C010F003C011F004C012F0000E136EEF
:10162000000E146E7A0E156E440E166EE7EC0DF079
:10163000D8A01DEF0BF01FEF0BF021EF0BF048EFE0
:101640000BF000D000D000F0444A452A44C001F01D
:1016500045C002F0036A046A000E4DEC0BF001C0B5
:101660000FF002C010F003C011F004C012F0000E21
:10167000136E000E146E7A0E156E440E166EE7ECA5
:101680000DF0D8A046EF0BF048EF0BF021EF0BF078
:101690003F5005EC11F0010E1200096E0950D8B44C
:1016A00054EF0BF056EF0BF078EF0BF004BE5DEF4C
:1016B0000BF05BEF0BF078EF0BF001C005F002C010
:1016C00006F003C007F004C008F0051E061E071E42
:1016D000081E052A000E06220722082205C00BF06C
:1016E00006C00CF007C00DF008C00EF080EF0BF044
:1016F00001C00BF002C00CF003C00DF004C00EF0EE
:101700000150021003100410D8A489EF0BF08BEFE6
:101710000BF095EF0BF0000E016E000E026E000E46
:10172000036E000E046E26EF0CF0960E0A6E9FEF0D
:101730000BF00A2AD8900E320D320C320B32000E0A
:101740000B14056E000E0C14066E000E0D14076EC1
:10175000FE0E0E14086E0550061007100810D8A4CF
:10176000B4EF0BF0B6EF0BF099EF0BF0C4EF0BF00A
:101770000A2A010E0B26000E0C220D220E22D890F2
:101780000E320D320C320B32000E0B14056E000EB1
:101790000C14066E000E0D14076EFF0E0E14086E6C
:1017A0000550061007100810D8A4D9EF0BF0DBEF96
:1017B0000BF0B8EF0BF0E3EF0BF00A06D8900B3606
:1017C0000C360D360E360DBEE8EF0BF0EAEF0BF0DF
:1017D000F2EF0BF0020E0A60F0EF0BF0F2EF0BF0FD
:1017E000DDEF0BF00AB0F7EF0BF0F9EF0BF0FAEFCB
:1017F0000BF00D9ED8900A320AC005F0066A076AFF
:10180000086A05C008F0076A066A056A05500B12E7
:1018100006500C1207500D1208500E120950D8B481
:1018200014EF0CF016EF0CF01EEF0CF004BE1DEFE1
:101830000CF01BEF0CF01EEF0CF00E8E0BC001F045
:101840000CC002F00DC003F00EC004F012008FC0F7
:1018500066F090C067F091C068F092C069F051C026
:1018600066F052C067F053C068F054C069F08A0E49
:10187000556EFF0E566E66C057F067C058F068C0D0
:1018800059F069C05AF0180E4BEF0CF0D8905A324C
:10189000593258325732E82E46EF0CF05750552443
:1018A0000001646F000E5620656F65BF61EF0CF09C
:1018B000655109E1200E645DD8A061EF0CF063EF83
:1018C0000CF06DEF0CF051C051F052C052F053C00B
:1018D00053F054C054F0CCEF0CF065BF7BEF0CF02C
:1018E000655107E1090E645DD8B079EF0CF07BEF2C
:1018F0000CF07FEF0CF0000E656F010E646FFF0EB1
:10190000556EFF0E566EFF0E576EFF0E586E6451E9
:10191000E82A90EF0CF0D8905832573256325532B0
:10192000E82E8BEF0CF055C060F056C061F057C048
:1019300062F058C063F060516615556E61516715CD
:10194000566E62516815576E63516915586E555041
:10195000561057105810D8A4B0EF0CF0B2EF0CF09E
:10196000B4EF0CF063EF0CF0601D556E611D566E08
:10197000621D576E631D586E555066175650671797
:10198000575068175850691766C051F067C052F039
:1019900068C053F069C054F012000001786F640E03
:1019A00000017865D6EF0CF0D8EF0CF0DAEF0CF010
:1019B000640E786F000E136E000E146EC80E156E56
:1019C000420E166E7851016E026A036A046A000EB6
:1019D0004DEC0BF001C00FF002C010F003C011F08D
:1019E00004C012F078EC08F00FC02CF010C02DF0FD
:1019F00011C02EF012C02FF0CB500001706F716B30
:101A0000010E7027000E712370C001F071C002F04A
:101A1000000E02BEFF0E036E046E010E4DEC0BF0C5
:101A200001C028F002C029F003C02AF004C02BF046
:101A300063EC06F028C072F029C073F02AC074F07D
:101A40002BC075F0000E2C6E000E2D6E800E2E6ECB
:101A5000400E2F6E72C028F073C029F074C02AF0B7
:101A600075C02BF063EC06F028C051F029C052F08D
:101A70002AC053F02BC054F027EC0CF051C05BF09F
:101A800052C05CF053C05DF054C05EF063EC0DF0EA
:101A90005BC076F05CC077F076C070F077C071F014
:101AA0000001D89071337033D89071337033705116
:101AB000BE6ECF0EBD1676C070F0030E7017703973
:101AC000F00BBD1212005D345E3400016F6F6F5178
:101AD000D8A46DEF0DF06FEF0DF079EF0DF0000E63
:101AE0005B6E000E5C6E000E5D6E000E5E6EE6EFCD
:101AF0000DF05BC06AF05CC06BF05DC06CF05EC066
:101B00006DF0200E89EF0DF0D8906D336C336B3390
:101B10006A33E82E84EF0DF06A516E6F5D8EFF0E12
:101B20005B16FF0E5C16FF0E5D16000E5E16960E1F
:101B30006F5F6FBFA0EF0DF09EEF0DF0B6EF0DF0F1
:101B40006F51800A970FD8B0A8EF0DF0AAEF0DF0F3
:101B5000ACEF0DF06FEF0DF0D8905E325D325C327D
:101B60005B326F3FACEF0DF0CEEF0DF01F0E6F65E7
:101B7000BCEF0DF0BEEF0DF0C6EF0DF06FEF0DF006
:101B8000D8905B365C365D365E366F076F51D8A4F1
:101B9000CCEF0DF0CEEF0DF0C0EF0DF06E51D8B4DC
:101BA000D4EF0DF0D6EF0DF0DEEF0DF05E1E5D1EF2
:101BB0005C1E5B6C000E5C225D225E225BC05BF0F3
:101BC0005CC05CF05DC05DF05EC05EF01200000EB7
:101BD0000F14176E000E1014186E800E1114196E6B
:101BE0007F0E12141A6E1750181019101A10D8A45C
:101BF000FCEF0DF0FEEF0DF006EF0EF0000E0F6E95
:101C0000000E106E000E116E000E126E000E1314F8
:101C1000176E000E1414186E800E1514196E7F0EB8
:101C200016141A6E1750181019101A10D8A41BEF9A
:101C30000EF01DEF0EF025EF0EF0000E136E000EED
:101C4000146E000E156E000E166E12AE2AEF0EF018
:101C50002CEF0EF035EF0EF00F6C101ED8B0102ADE
:101C6000111ED8B0112A800E125616AE3AEF0EF0A1
:101C70003CEF0EF045EF0EF0136C141ED8B0142A92
:101C8000151ED8B0152A800E1656000E0F1A000E1B
:101C9000101A000E111A800E121A000E131A000EDE
:101CA000141A000E151A800E161A13500F5C1450D9
:101CB00010581550115816501258D8B062EF0EF047
:101CC00064EF0EF067EF0EF0D89068EF0EF0D8805A
:101CD0001200000E2C6E000E2D6E800E2E6E400E29
:101CE0002F6E70C028F071C029F072C02AF073C046
:101CF0002BF063EC06F028C074F029C075F02AC000
:101D000076F02BC077F0000E456E000E466E800E0A
:101D1000476EBF0E486E100E016E000E026E000E72
:101D2000036E000E046E010E4DEC0BF001C02CF0A2
:101D300002C02DF003C02EF004C02FF074C028F0B4
:101D400075C029F076C02AF077C02BF063EC06F05E
:101D500028C013F029C014F02AC015F02BC016F0CB
:101D6000000E0F6E1B0E106E370E116E4C0E126EA3
:101D700078EC08F00FC041F010C042F011C043F001
:101D800012C044F003EC04F041C051F042C052F0E4
:101D900043C053F044C054F027EC0CF051C05BF04A
:101DA00052C05CF053C05DF054C05EF063EC0DF0C7
:101DB0005B50CB6E1200000E296E000E2A6E010ED3
:101DC00005EC11F0290E216E000E226E2A0E236EF4
:101DD000000E246E65EC10F0020AD8A4F2EF0EF0AB
:101DE000F4EF0EF0F7EF0EF0000E33EF0FF0020EEF
:101DF0002A18D8B4FEEF0EF000EF0FF002EF0FF04C
:101E0000F4EF0EF0CBCF26F0BECF27F0BDCF28F0F9
:101E1000040E0A6E260E0B6E000E0C6E030E0D6E77
:101E2000040EC6EC10F0290E216E000E226E2A0E52
:101E3000236E000E246E65EC10F0020AD8A423EF86
:101E40000FF025EF0FF027EF0FF0F4EF0EF0020E7A
:101E50002A18D8B42EEF0FF030EF0FF032EF0FF05A
:101E6000F4EF0EF0010E1200000E1D6E000E1E6E3D
:101E7000000E1F6E000E206E6EEF0FF0000E0F6E44
:101E8000000E106E7A0E116E440E126E1DC001F01F
:101E90001EC002F01FC003F020C004F0000E4DEC85
:101EA0000BF001C013F002C014F003C015F004C021
:101EB00016F0E7EC0DF0D8B060EF0FF062EF0FF026
:101EC00065EF0FF0020E7CEF0FF000D000D000F0B5
:101ED000010E1D26000E1E221F2220229EAA73EF35
:101EE0000FF075EF0FF03EEF0FF01BC0D9FF1CC0D5
:101EF000DAFFAECFDFFF010E1200E2EC10F0000EB1
:101F000000017F6F400E806F9C0E816F460E826FC6
:101F10007FC070F080C071F081C072F082C073F039
:101F200069EC0EF0320E5F6E000E3AEC10F0B1EC80
:101F300010F0000E0001846F000E836F00018451C9
:101F4000D8A4A5EF0FF0A7EF0FF0B6EF0FF0DBEC82
:101F50000EF00001846F8351D8B4B1EF0FF0B3EFEE
:101F60000FF09EEF0FF000F09EEF0FF045EC0AF03F
:101F70000001846F010E836F9EEF0FF000EF00F001
:101F80002CC01BF02DC01CF034EC0FF0346E020E90
:101F90003418D8A4CEEF0FF0D0EF0FF0D3EF0FF03E
:101FA000020E01EF10F02EC01BF02FC01CF034EC1D
:101FB0000FF0346E020E3418D8A4E1EF0FF0E3EF07
:101FC0000FF0E5EF0FF0D0EF0FF030C021F031C08F
:101FD00022F032C023F02CC0D9FF2DC0DAFFDF5031
:101FE000336E330402EC10F0346E020E3418D8A4B1
:101FF000FCEF0FF0FEEF0FF000EF10F0D0EF0FF05E
:10200000010E1200276E000E2A6E000E296E26EFBA
:1020100010F02B0E1B6E000E1C6E34EC0FF0286EB1
:10202000020E2818D8A417EF10F019EF10F01CEFCB
:1020300010F0020E39EF10F029502124D96E2A50E9
:102040002220DA6E2BC0DFFF294A2A2A2750246E6D
:10205000256A2450295C2A50800A266E2550800A61
:102060002658D8A036EF10F038EF10F009EF10F036
:10207000010E120000017C6F7CC07DF000017E6BC0
:1020800052EF10F0410E0001796FEE0EE82EFED7F0
:10209000792FFCD700F000017D51CDEC0CF0000150
:1020A0007D4B7E2B5F50796F7A6B79517D5D7E51D0
:1020B000800A7B6F7A51800A7B59D8A062EF10F0BA
:1020C00064EF10F042EF10F0120021C01BF022C0AC
:1020D0001CF034EC0FF0256E020E2518D8A473EF17
:1020E00010F075EF10F078EF10F0020E8BEF10F09B
:1020F00023C01BF024C01CF034EC0FF0256E020E40
:102100002518D8A486EF10F088EF10F08AEF10F0B1
:1021100075EF10F0010E1200076E000E096E000E32
:10212000086E9EEF10F008500224D96E095003206B
:10213000DA6EDF50FAEC10F0084A092A0750046EF4
:10214000056A0450085C0950800A066E0550800A32
:102150000658D8A0AEEF10F0B0EF10F093EF10F0EB
:102160001200949C948E000E026E028A000E036E82
:10217000038E038A0388000E016E02C0ACFF03C009
:10218000ABFF01C0B8FF4D0EAF6E12000E6E0E50C9
:10219000FAEC10F00A50FAEC10F00BC002F00CC090
:1021A00003F00E048CEC10F0120000EE85F00E0E21
:1021B000EE6AE806FDE1000EF86E080EF76E00010B
:1021C0007DEF0FF09494230ECB6E000EBE6E020EC8
:1021D000CA6E0C0EBD6E000ECC6ECA841200026E6A
:1021E000CF0EBD1602C001F0030E01160138F00B30
:1021F000BD121200016E9EA800EF11F002EF11F067
:10220000FBEF10F001C0ADFF1200026E010EFAEC00
:0A22100010F00250FAEC10F012007A
:020000040020DA
:08000000FFFFFFFFFFFFFFFF00
:020000040030CA
:0E000000040E1E1EFF8180FF0FC00FE00F4098
:00000001FF
